{
  "contractName": "ProductAuth",
  "abi": [
    {
      "anonymous": false,
      "inputs": [
        {
          "indexed": false,
          "internalType": "uint256",
          "name": "id",
          "type": "uint256"
        },
        {
          "indexed": false,
          "internalType": "address",
          "name": "manufacturer",
          "type": "address"
        },
        {
          "indexed": false,
          "internalType": "string",
          "name": "name",
          "type": "string"
        }
      ],
      "name": "ProductAdded",
      "type": "event"
    },
    {
      "inputs": [],
      "name": "nextId",
      "outputs": [
        {
          "internalType": "uint256",
          "name": "",
          "type": "uint256"
        }
      ],
      "stateMutability": "view",
      "type": "function",
      "constant": true
    },
    {
      "inputs": [
        {
          "internalType": "uint256",
          "name": "",
          "type": "uint256"
        }
      ],
      "name": "products",
      "outputs": [
        {
          "internalType": "uint256",
          "name": "id",
          "type": "uint256"
        },
        {
          "internalType": "address",
          "name": "manufacturer",
          "type": "address"
        },
        {
          "internalType": "string",
          "name": "name",
          "type": "string"
        },
        {
          "internalType": "string",
          "name": "details",
          "type": "string"
        }
      ],
      "stateMutability": "view",
      "type": "function",
      "constant": true
    },
    {
      "inputs": [
        {
          "internalType": "string",
          "name": "name",
          "type": "string"
        },
        {
          "internalType": "string",
          "name": "details",
          "type": "string"
        }
      ],
      "name": "addProduct",
      "outputs": [],
      "stateMutability": "nonpayable",
      "type": "function"
    },
    {
      "inputs": [
        {
          "internalType": "uint256",
          "name": "id",
          "type": "uint256"
        }
      ],
      "name": "verifyProduct",
      "outputs": [
        {
          "internalType": "string",
          "name": "",
          "type": "string"
        },
        {
          "internalType": "string",
          "name": "",
          "type": "string"
        },
        {
          "internalType": "address",
          "name": "",
          "type": "address"
        }
      ],
      "stateMutability": "view",
      "type": "function",
      "constant": true
    }
  ],
  "bytecode": "0x60806040526001805534801561001457600080fd5b50610b56806100246000396000f3fe608060405234801561001057600080fd5b506004361061004c5760003560e01c8063524e84621461005157806361b8ce8c146100835780637acc0b20146100a1578063ca2efb55146100d4575b600080fd5b61006b60048036038101906100669190610724565b6100f0565b60405161007a939291906107e4565b60405180910390f35b61008b6102fe565b6040516100989190610849565b60405180910390f35b6100bb60048036038101906100b69190610724565b610304565b6040516100cb94939291906108a2565b60405180910390f35b6100ee60048036038101906100e991906106b8565b610464565b005b606080600080600080868152602001908152602001600020604051806080016040529081600082015481526020016001820160009054906101000a900473ffffffffffffffffffffffffffffffffffffffff1673ffffffffffffffffffffffffffffffffffffffff1673ffffffffffffffffffffffffffffffffffffffff168152602001600282018054610183906109f0565b80601f01602080910402602001604051908101604052809291908181526020018280546101af906109f0565b80156101fc5780601f106101d1576101008083540402835291602001916101fc565b820191906000526020600020905b8154815290600101906020018083116101df57829003601f168201915b50505050508152602001600382018054610215906109f0565b80601f0160208091040260200160405190810160405280929190818152602001828054610241906109f0565b801561028e5780601f106102635761010080835404028352916020019161028e565b820191906000526020600020905b81548152906001019060200180831161027157829003601f168201915b50505050508152505090506000816000015114156102e1576040517f08c379a00000000000000000000000000000000000000000000000000000000081526004016102d890610829565b60405180910390fd5b806040015181606001518260200151935093509350509193909250565b60015481565b60006020528060005260406000206000915090508060000154908060010160009054906101000a900473ffffffffffffffffffffffffffffffffffffffff1690806002018054610353906109f0565b80601f016020809104026020016040519081016040528092919081815260200182805461037f906109f0565b80156103cc5780601f106103a1576101008083540402835291602001916103cc565b820191906000526020600020905b8154815290600101906020018083116103af57829003601f168201915b5050505050908060030180546103e1906109f0565b80601f016020809104026020016040519081016040528092919081815260200182805461040d906109f0565b801561045a5780601f1061042f5761010080835404028352916020019161045a565b820191906000526020600020905b81548152906001019060200180831161043d57829003601f168201915b5050505050905084565b604051806080016040528060015481526020013373ffffffffffffffffffffffffffffffffffffffff1681526020018381526020018281525060008060015481526020019081526020016000206000820151816000015560208201518160010160006101000a81548173ffffffffffffffffffffffffffffffffffffffff021916908373ffffffffffffffffffffffffffffffffffffffff160217905550604082015181600201908051906020019061051e929190610598565b50606082015181600301908051906020019061053b929190610598565b509050507f74d7c4229bdf061d8fb4ee7e23d97b40c179f4161a795166cdc05558cb450581600154338460405161057493929190610864565b60405180910390a16001600081548092919061058f90610a22565b91905055505050565b8280546105a4906109f0565b90600052602060002090601f0160209004810192826105c6576000855561060d565b82601f106105df57805160ff191683800117855561060d565b8280016001018555821561060d579182015b8281111561060c5782518255916020019190600101906105f1565b5b50905061061a919061061e565b5090565b5b8082111561063757600081600090555060010161061f565b5090565b600061064e61064984610926565b6108f5565b90508281526020810184848401111561066657600080fd5b6106718482856109ae565b509392505050565b600082601f83011261068a57600080fd5b813561069a84826020860161063b565b91505092915050565b6000813590506106b281610b09565b92915050565b600080604083850312156106cb57600080fd5b600083013567ffffffffffffffff8111156106e557600080fd5b6106f185828601610679565b925050602083013567ffffffffffffffff81111561070e57600080fd5b61071a85828601610679565b9150509250929050565b60006020828403121561073657600080fd5b6000610744848285016106a3565b91505092915050565b61075681610972565b82525050565b600061076782610956565b6107718185610961565b93506107818185602086016109bd565b61078a81610af8565b840191505092915050565b60006107a2601683610961565b91507f50726f6475637420646f6573206e6f74206578697374000000000000000000006000830152602082019050919050565b6107de816109a4565b82525050565b600060608201905081810360008301526107fe818661075c565b90508181036020830152610812818561075c565b9050610821604083018461074d565b949350505050565b6000602082019050818103600083015261084281610795565b9050919050565b600060208201905061085e60008301846107d5565b92915050565b600060608201905061087960008301866107d5565b610886602083018561074d565b8181036040830152610898818461075c565b9050949350505050565b60006080820190506108b760008301876107d5565b6108c4602083018661074d565b81810360408301526108d6818561075c565b905081810360608301526108ea818461075c565b905095945050505050565b6000604051905081810181811067ffffffffffffffff8211171561091c5761091b610ac9565b5b8060405250919050565b600067ffffffffffffffff82111561094157610940610ac9565b5b601f19601f8301169050602081019050919050565b600081519050919050565b600082825260208201905092915050565b600061097d82610984565b9050919050565b600073ffffffffffffffffffffffffffffffffffffffff82169050919050565b6000819050919050565b82818337600083830152505050565b60005b838110156109db5780820151818401526020810190506109c0565b838111156109ea576000848401525b50505050565b60006002820490506001821680610a0857607f821691505b60208210811415610a1c57610a1b610a9a565b5b50919050565b6000610a2d826109a4565b91507fffffffffffffffffffffffffffffffffffffffffffffffffffffffffffffffff821415610a6057610a5f610a6b565b5b600182019050919050565b7f4e487b7100000000000000000000000000000000000000000000000000000000600052601160045260246000fd5b7f4e487b7100000000000000000000000000000000000000000000000000000000600052602260045260246000fd5b7f4e487b7100000000000000000000000000000000000000000000000000000000600052604160045260246000fd5b6000601f19601f8301169050919050565b610b12816109a4565b8114610b1d57600080fd5b5056fea264697066735822122090cbb0301a7ba0804452ab92d049e2b606dbe1a04d7556001aed23f17f5d90a164736f6c63430008000033",
  "immutableReferences": {},
  "source": "// SPDX-License-Identifier: MIT\r\npragma solidity ^0.8.0;\r\n\r\ncontract ProductAuth {\r\n    struct Product {\r\n        uint id;\r\n        address manufacturer;\r\n        string name;\r\n        string details;\r\n    }\r\n    mapping(uint => Product) public products;\r\n    uint public nextId = 1;\r\n\r\n    event ProductAdded(uint id, address manufacturer, string name);\r\n\r\n    function addProduct(string memory name, string memory details) public {\r\n        products[nextId] = Product(nextId, msg.sender, name, details);\r\n        emit ProductAdded(nextId, msg.sender, name);\r\n        nextId++;\r\n    }\r\n\r\n    function verifyProduct(uint id) public view returns (string memory, string memory, address) {\r\n        Product memory product = products[id];\r\n        require(product.id != 0, \"Product does not exist\");\r\n        return (product.name, product.details, product.manufacturer);\r\n    }\r\n}",
  "sourcePath": "C:\\Users\\VICTUS\\Desktop\\fake-product-identification\\contracts\\ProductAuth.sol",
  "compiler": {
    "name": "solc",
    "version": "0.8.0+commit.c7dfd78e.Emscripten.clang"
  },
  "schemaVersion": "3.4.16",
  "updatedAt": "2025-08-15T08:18:34.672Z",
  "networkType": "ethereum",
  "devdoc": {
    "kind": "dev",
    "methods": {},
    "version": 1
  },
  "userdoc": {
    "kind": "user",
    "methods": {},
    "version": 1
  }
}